S01C000055564D657465725F475556415F54696E793430322E7372656335
S11300002DC03FC03EC03DC03CC03BC03AC039C01B
S113001038C037C036C035C034C033C032C031C038
S113002030C02FC02EC02DC02CC02BC057C029C03B
S113003028C027C007634236B79BD8A71A39685629
S113004018AEBAAB558C1D3CB7CC5763BD6DEDFDF6
S1130050753EF6177231BF000000803F11241FBEA9
S1130060CFEFCDBFDFE3DEBF1FE3A0E0BFE3E4EEED
S1130070F8E002C005900D92A030B107D9F783D003
S11300802FC4BECF88ED84BF89E08093000108951A
S113009088ED84BF81E0809300010895E0E0F4E0FE
S11300A080818064808380818F778083E0E0F8E0C2
S11300B087E490E1808791878681806C86830895A8
S11300C09091040895FFFCCF8093020808958091D5
S11300D004088823E4F78091000808951F920F9282
S11300E00FB60F9211242F933F934F935F936F9307
S11300F07F938F939F93AF93BF93EF93FF93E7DF28
S1130100823751F4C5DF2FE986E891E02150804021
S11301109040E1F700C00000FF91EF91BF91AF91D3
S11301209F918F917F916F915F914F913F912F910B
S11301300F900FBE0F901F901895E0E0F4E08189B6
S1130140887F818B81898460818B8189877F818B82
S1130150E0E0F6E081E1828381E080830895E0E0DD
S1130160F6E0868380818260808381E080870895C1
S113017080910B0680FFFCCFE0E0F6E081E083870E
S113018080899189089588ED84BF1092600084BFAE
S113019081E08093610087EA91E60197F1F700C05E
S11301A0000070DF7BDFE0E0F8E085818068858314
S11301B07894C3DF9FE32DE083E09150204080409A
S11301C0E1F700C000005EDFC0E0C12CD12C760155
S11301D0CA30B0F481E0C3DF87EA91E60197F1F712
S11301E000C00000C5DFBC0180E090E038D19B0175
S11301F0AC01C701B60159D06B017C01CF5FE8CFD8
S113020021EB39E148EA59E3C701B6017CD22CE479
S113021037E349E550E477D2C1D025E63AEA40E233
S11302205EE371D26B017C012BE734E14EE25EE3C5
S1130230A8D018161CF0C12CD12C760120E030E097
S113024040E251E4C701B6015ED26B017C01D8D013
S113025070E080E090E005D19B01AC01C701B601DC
S113026023D020E030E040E05FE3D2D118164CF414
S113027020E030E040E85FE3C701B60116D06B012F
S11302807C0183E01DDFC701B601BAD0862F18DFD9
S11302908AE016DF9FEB27E289E0915020408040FE
S11302A0E1F700C000008FCF5058BB27AA270E9457
S11302B06C010C94CE020E94C00238F00E94C70266
S11302C020F039F49F3F19F426F40C9496020EF4AE
S11302D0E095E7FB0C949002E92F0E94DF0258F3AB
S11302E0BA17620773078407950720F079F4A6F517
S11302F00C9401030EF4E0950B2EBA2FA02D0B01E4
S1130300B90190010C01CA01A0011124FF27591B56
S113031099F0593F50F4503E68F11A16F040A22F5C
S1130320232F342F4427585FF3CF469537952795CD
S1130330A795F0405395C9F77EF41F16BA0B620BCC
S1130340730B840BBAF09150A1F0FF0FBB1F661F13
S1130350771F881FC2F70EC0BA0F621F731F841F56
S113036048F4879577956795B795F7959E3F08F07C
S1130370B0CF9395880F08F09927EE0F979587953E
S113038008950E946C0208F481E0089529F416F09F
S11303900C9490020C9401030C9496020E94E702C0
S11303A0A8F39638A0F707F80F92E8942BE33AEAFB
S11303B048EB5FE70E9499030F920F920F924DB79B
S11303C05EB70F920E944F03E4E3F0E00E949902AB
S11303D04F915F91EF91FF91E595EE1FFF1F49F05B
S11303E0FE57E0684427EE0F441FFA95E1F7419564
S11303F0550B0E9419030F9007FE0C940D030895EA
S11304000E94E70288F09F5798F0B92F9927B751B7
S1130410B0F0E1F0660F771F881F991F1AF0BA95A4
S1130420C9F714C0B13091F00E940103B1E00895FE
S11304300C940103672F782F8827B85F39F0B93FF0
S1130440CCF3869577956795B395D9F73EF4909557
S11304508095709561957F4F8F4F9F4F0895E894D5
S113046009C097FB3EF490958095709561957F4FF8
S11304708F4F9F4F9923A9F0F92F96E9BB279395A6
S1130480F695879577956795B795F111F8CFFAF4B6
S1130490BB0F11F460FF1BC06F5F7F4F8F4F9F4FE7
S11304A016C0882311F096E911C0772321F09EE845
S11304B0872F762F05C0662371F096E8862F70E0AB
S11304C060E02AF09A95660F771F881FDAF7880F85
S11304D09695879597F90895990F0008550FAA0BDB
S11304E0E0E8FEEF16161706E807F907C0F0121643
S11304F01306E407F50798F0621B730B840B950B46
S113050039F40A2661F0232B242B252B21F408959A
S11305100A2609F4A140A6958FEF811D811D089537
S113052097F99F6780E870E060E008959FEF80ECA2
S11305300895DF93CF931F930F93FF92EF92DF926F
S11305407B018C01689406C0DA2EEF010E949603A9
S1130550FE01E894A5912591359145915591A6F315
S1130560EF010E946C01FE019701A801DA9469F77A
S1130570DF90EF90FF900F911F91CF91DF9108953D
S113058000240A941616170618060906089500246E
S11305900A9412161306140605060895092E0394E8
S11305A0000C11F4882352F0BB0F40F4BF2B11F45C
S11305B060FF04C06F5F7F4F8F4F9F4F089557FDBB
S11305C09058440F551F59F05F3F71F04795880FBD
S11305D097FB991F61F09F3F79F087950895121654
S11305E013061406551FF2CF4695F1DF08C0161600
S11305F017061806991FF1CF8695710561050894B1
S11306000895E894BB2766277727CB0197F90895C7
S11306100E946C0208F48FEF08959B01AC0160E026
S113062070E080E89FE30C94F0030C9490020C9427
S113063062040E94E702D8F39923C9F3940F511D71
S1130640A3F39150504094F059F0882332F0660F90
S1130650771F881F91505040C1F79E3F51052CF7DA
S1130660880F911D9695879597F908955F3FACF093
S1130670983E9CF0BB27869577956795B79508F4C7
S1130680B1609395C1F7BB0F58F711F460FFE8CF41
S11306906F5F7F4F8F4F9F4FE3CF0C940203FA019C
S11306A0DC01AA0FBB1F9B01AC01BF5728F4222712
S11306B033274427507820C0B75190F4AB2F00243F
S11306C0469537952795011CA395D2F3002071F028
S11306D0220F331F441FB395DAF30ED00C94540148
S11306E061307105A0E88A07B94630F49B01AC017A
S11306F06627772788279078309621F020833183E6
S11307004283538308950E9496030C94CE020E9460
S1130710C00238F00E94C70220F0952311F00C9417
S113072090020C94960211240C9402030E94DF029E
S113073070F3959FC1F3950F50E0551F629FF00130
S1130740729FBB27F00DB11D639FAA27F00DB11D49
S1130750AA1F649F6627B00DA11D661F829F2227D2
S1130760B00DA11D621F739FB00DA11D621F839F59
S1130770A00D611D221F749F3327A00D611D231F2F
S1130780849F600D211D822F762F6A2F11249F577D
S113079050409AF0F1F088234AF0EE0FFF1FBB1F80
S11307A0661F771F881F91505040A9F79E3F51053F
S11307B080F00C9490020C9402035F3FE4F3983EA3
S11307C0D4F3869577956795B795F795E7959F5FE9
S11307D0C1F7FE2B880F911D9695879597F908957B
S11307E00E9404040C94CE020E94C70258F00E9496
S11307F0C00240F029F45F3F29F00C94900251119B
S11308000C9402030C9496020E94DF0268F399236D
S1130810B1F3552391F3951B550BBB27AA276217F8
S11308207307840738F09F5F5F4F220F331F441F05
S1130830AA1FA9F335D00E2E3AF0E0E832D0915039
S11308405040E695001CCAF72BD0FE2F29D0660F26
S1130850771F881FBB1F261737074807AB07B0E869
S113086009F0BB0B802DBF01FF2793585F4F3AF06F
S11308709E3F510578F00C9490020C9402035F3F64
S1130880E4F3983ED4F3869577956795B795F795F5
S11308909F5FC9F7880F911D9695879597F90895DD
S11308A0E1E0660F771F881FBB1F62177307840779
S11308B0BA0720F0621B730B840BBA0BEE1F88F788
S11308C0E09508959F3F31F0915020F487957795F6
S11308D06795B795880F911D9695879597F9089513
S10708E0F894FFCFB6
S9030000FC
